:020000040800F2
:10000000D87B00209D010008390A0008A1040008DF
:10001000350A0008A3030008E314000800000000EC
:10002000000000000000000000000000D10C0008EB
:10003000A703000800000000F10A00083D0E0008B8
:10004000B7010008B7010008B7010008B7010008B0
:10005000B7010008B7010008B7010008B7010008A0
:10006000B7010008B7010008B7010008B701000890
:10007000B7010008B7010008B7010008B701000880
:10008000B7010008B7010008B7010008B701000870
:10009000B7010008B7010008B7010008B701000860
:1000A000B7010008B7010008B7010008B701000850
:1000B000AD0E0008B7010008B7010008B70100083D
:1000C000B7010008B7010008B7010008B701000830
:1000D000B7010008AD110008B7010008B70100081A
:1000E000B7010008B7010008B7010008B701000810
:1000F000B7010008B7010008B7010008B701000800
:10010000B7010008B7010008B7010008B7010008EF
:10011000B7010008B7010008B7010008B7010008DF
:10012000B7010008B7010008B7010008B7010008CF
:10013000B7010008B7010008B7010008B7010008BF
:10014000B7010008B7010008B7010008B7010008AF
:10015000B7010008B7010008B7010008B70100089F
:10016000B7010008B7010008B7010008B70100088F
:10017000B7010008B7010008B7010008B70100087F
:10018000B7010008B7010008DFF80CD000F0CCF888
:1001900000480047F5600208D87B002006488047E9
:1001A00006480047FEE7FEE7FEE7FEE7FEE7FEE75C
:1001B000FEE7FEE7FEE7FEE7450E000889010008BE
:1001C0002DE9F05F0546002092469B46884606468C
:1001D000814640241BE0284641464746224600F01F
:1001E00092F853465A46C01A914110D31146184608
:1001F000224600F079F82D1A67EB01084F46224697
:100200000120002100F070F817EB00094E41201E7C
:10021000A4F10104DFDC484631462A464346BDE8E6
:10022000F09F2DE9F0410024061B254671F10006E0
:1002300005DA01240027D0EB070067EB0101161E49
:1002400073F1000605DA0027D2EB0702012567EB00
:100250000303FFF7B5FF86460E4617469C46AC42A1
:1002600004D00025D0EB050E65EB010624B100207B
:10027000D2EB000760EB030C704631463A4663460A
:10028000BDE8F08140EA01039B0703D009E008C9FB
:10029000121F08C0042AFAD203E011F8013B00F84B
:1002A000013B521EF9D27047D2B201E000F8012B97
:1002B000491EFBD270470022F6E710B513460A46E6
:1002C00004461946FFF7F0FF204610BD10B5002286
:1002D00000E0521C835C8C5CA34201D1002BF8D15E
:1002E000D8B2E1B2401A10BD202A04DB203A00FA4D
:1002F00002F1002070479140C2F1200320FA03F37D
:10030000194390407047202A04DB203A21FA02F07A
:100310000021704721FA02F3D040C2F1200291403F
:100320000843194670470000064C074D06E0E06898
:1003300040F0010394E8070098471034AC42F6D32C
:10034000FFF726FF682203088822030870B58C187F
:1003500010F8015B15F0070301D110F8013B2A11D9
:1003600006D110F8012B03E010F8016B01F8016BC6
:100370005B1EF9D12B0705D40023521E0DD401F8C2
:10038000013BFAE710F8013BCB1A921C03E013F88B
:10039000015B01F8015B521EF9D5A142D8D30020C0
:1003A00070BD00BFFEE7704710B56FF0040000F0AD
:1003B00031FD15200149087010BD0000000000202B
:1003C000F0B50A4600210023002400BF3DE00125CE
:1003D00005FA01F3156805EA03049C4234D1056867
:1003E0004F000326BE40B543056015794E00B54069
:1003F0000668354305601579012D02D01579022D67
:1004000016D185684F000326BE40B54385605579F7
:100410004E00B540866835438560456801268E40AC
:10042000B5434560456896798E40B6B23543456020
:10043000C5684F000326BE40B543C560D5794E0060
:10044000B540C6683543C560491C1029BFD3F0BD0F
:10045000F0B5002300244D07ED0E02FA05F3CE108F
:1004600000F1200555F826504E07F70E0F26BE4026
:10047000B543CF1000F1200646F82750CE1000F10A
:10048000200555F8265045EA0304CE1000F120055A
:1004900045F82640F0BD0A048261704781617047CB
:1004A00000BFFEE710B54FF4407000F017FBFFF7F8
:1004B0007BFF00F099FA00F01DF800F0E7FE00F075
:1004C00037FE00F0F1F802A001F00EF810BD0000B8
:1004D000686172647761726520696E697469616CC4
:1004E000697A65207375636365737366756C6C797F
:1004F000210D0A001CB50121084600F0FBFA00207E
:100500008DF8040001208DF8070000208DF805000B
:100510004FF40040009069460148FFF751FF1CBDB1
:100520000000024010B52C48C088401E83B22A4803
:100530008088401E81B20022104600F0CFF9274883
:1005400000884FF6BF71084024490880084600889B
:1005500040F4006008800846008840F040000880B1
:100560004FF000601E49086000240DE01A484088E2
:100570001A490C31088000BF18480830008800F084
:1005800002000028F8D0641C134880881249C988EA
:100590004843A042EAD800BF10480830008800F065
:1005A00080000028F8D14FF400600D4908600B4826
:1005B00000884FF6BF710840084908800846008847
:1005C0004FF2FF710840054908800846008840F056
:1005D0004000088010BD000008060020003C0040DC
:1005E000180C02402DE9F04780460C4615461E4681
:1005F000DDF82090A019401E83B208EB0500401ED4
:1006000081B22246404600F069F9254800884FF63D
:10061000BF710840224908800846008840F4006005
:1006200008800846008840F0400008804FF00060D5
:100630001C49086000270DE039F8170018490C31F3
:10064000088000BF16480830008800F0020000282B
:10065000F8D07F1C05FB06F0B842EDD800BF10486B
:100660000830008800F080000028F8D14FF40060C6
:100670000C4908600A4800884FF6BF7108400849D5
:100680000880084600884FF2FF710840044908803E
:100690000846008840F040000880BDE8F087000070
:1006A000003C0040180C024010B500F02DFF00F097
:1006B0008BFF052006E041F2883100E0491E002949
:1006C000FCDC401E0028F6DC4FF000607849086032
:1006D000362000F039F9002000F078F93A2000F0D7
:1006E00033F9052000F072F9B22000F02DF90C204A
:1006F00000F06CF90C2000F069F9002000F066F9B8
:10070000332000F063F9332000F060F9B72000F0E7
:100710001BF9352000F05AF9BB2000F015F919201B
:1007200000F054F9C02000F00FF92C2000F04EF931
:10073000C22000F009F9012000F048F9C32000F0C0
:1007400003F9122000F042F9C42000F0FDF8202047
:1007500000F03CF9C62000F0F7F8032000F036F96D
:10076000D02000F0F1F8A42000F030F9A12000F032
:100770002DF9E02000F0E8F8D02000F027F904205F
:1007800000F024F90D2000F021F9112000F01EF9ED
:10079000132000F01BF92B2000F018F93F2000F087
:1007A00015F9542000F012F94C2000F00FF9182030
:1007B00000F00CF90D2000F009F90B2000F006F90B
:1007C0001F2000F003F9232000F000F9E12000F0E1
:1007D000BBF8D02000F0FAF8042000F0F7F80C2065
:1007E00000F0F4F8112000F0F1F8132000F0EEF81A
:1007F0002C2000F0EBF83F2000F0E8F8442000F057
:10080000E5F8512000F0E2F82F2000F0DFF81F207B
:1008100000F0DCF81F2000F0D9F8202000F0D6F816
:10082000232000F0D3F8212000F08EF8112000F0F2
:100830008BF8782006E041F2883100E0491E00295B
:10084000FCDC401E0028F6DC292000F07DF800BF0B
:100850001848008800F080000028F9D14FF40060AB
:1008600013490860362000F06FF8002000F0AEF861
:10087000F020114988804FF4A070C880002000F05B
:100880001DF80D4948806FF07F4000F017F80A49C5
:1008900008802A2048722B2088722C20C872FFF70B
:1008A00041FE4FF4005102481838FFF7F7FD10BD24
:1008B000180C0240083C00400806002030B50146F4
:1008C00001F478052C0A01F47C456B09C1F3C402DC
:1008D00042EA030545EA040030BD00002DE9F0417D
:1008E00007460C4615461E464FF000601349086047
:1008F0001349487A00F028F8384600F04FF82046AF
:1009000000F04CF80E49887A00F01EF8284600F0F6
:1009100045F8304600F042F80949C87A00F014F86A
:1009200000BF0848008800F080000028F9D14FF48B
:10093000006002490860BDE8F0810000180C024028
:1009400008060020083C004010B5044600BF1148CE
:10095000008800F080000028F9D14FF480510E4843
:10096000FFF799FD0B48001D048000BF094800886F
:1009700000F002000028F9D000BF0648008800F00F
:1009800080000028F9D14FF480510348FFF786FD1D
:1009900010BD0000083C0040000C024001120A4A51
:1009A000118000BF0849091F098801F002010029D0
:1009B000F8D00549088000BF0349091F098801F0E4
:1009C00002010029F8D070470C3C0040054908801E
:1009D00000BF0449091F098801F002010029F8D06D
:1009E000704700000C3C00401CB50121042000F0C1
:1009F00081F801208DF8040000208DF806004FF4E6
:100A00000050009001208DF8070000208DF80500AF
:100A100069460448FFF7D4FC4FF4005001491831EF
:100A200008601CBD0008024010B519F065F921F0FE
:100A30008DFB10BD00BFFEE7704708B525208DF87F
:100A4000000000208DF8010008208DF80200012030
:100A50008DF80300684600F005F84FF4407000F090
:100A60003DF808BD70B5002100230F22C4781CB3E7
:100A7000174C246804F4E064C4F5E064C4F307216F
:100A8000C1F10404E3B20A4144789C40E1B28478A5
:100A9000144021430C07210E0E4C05786155047853
:100AA00004F01F050124AC4005786D11AD0005F17F
:100AB000E025C5F8004109E0047804F01F05012491
:100AC000AC40054D0678761145F8264070BD000013
:100AD0000CED00E000E400E080E100E002490143A9
:100AE000024A1160704700000000FA050CED00E0BA
:100AF0007047000029B1064A12680243044B1A608D
:100B000004E0034A12688243014B1A6070470000F8
:100B10003038024029B1064A12680243044B1A6079
:100B200004E0034A12688243014B1A6070470000D8
:100B30004038024029B1064A12680243044B1A6049
:100B400004E0034A12688243014B1A6070470000B8
:100B50002038024029B1064A12680243044B1A6049
:100B600004E0034A12688243014B1A607047000098
:100B70004438024029B1064A12680243044B1A6005
:100B800004E0034A12688243014B1A607047000078
:100B900024380240F0B5002100220024022500265E
:100BA0000223324F3F6807F00C0121B1042905D020
:100BB000082937D105E02E4F076036E02D4F07603A
:100BC00033E02A4F3F1F3F68C7F38056274F3F1F30
:100BD0003F6807F03F036EB1264FB7FBF3F7DFF82E
:100BE0008CC0ACF1040CDCF800C0CCF3881C07FB13
:100BF0000CF40CE01E4FB7FBF3F7DFF870C0ACF15C
:100C0000040CDCF800C0CCF3881C07FB0CF4174F75
:100C10003F1F3F68C7F301477F1C7D00B4FBF5F71A
:100C2000076002E0124F076000BF00BF0F4F3F6830
:100C300007F0F0010909104F7A5C0768D740476058
:100C40000A4F3F6807F4E051890A0B4F7A5C476806
:100C5000D7408760054F3F6807F46041490B064F56
:100C60007A5C4768D740C760F0BD00000838024092
:100C70000024F40000127A000A00002021B102884A
:100C800042F04002028004E002884FF6BF731A402F
:100C90000280704710B50022028802F441520B888E
:100CA0004C8823438C882343CC8823430C892343DB
:100CB0004C8923438C892343CC8923431A430280E4
:100CC000838B4FF2FF74234083830B8A038210BD12
:100CD00070470000F8B521F0DBFD064619F050FA28
:100CE000044632221146204620F099FD00231A4680
:100CF000092120461BF03FFC0A4810F079FC002235
:100D000001460090204620F0BBFE0022B221204682
:100D100020F056FF21F0BCFD064623F0F1F8054611
:100D2000F8BD0000FFF598000CB500200190009080
:100D30003448006840F480303249086000BF3148D0
:100D4000006800F4003000900198401C0190009869
:100D500018B90198B0F5A04FF1D12A48006800F405
:100D6000003010B10120009001E0002000900098B8
:100D7000012846D123484030006840F08050214986
:100D8000403108602048006840F440401E49086037
:100D90001C48083000681B49083108600846006894
:100DA00040F4004008600846006840F4A050086025
:100DB0001648091F0860081F006840F08070091F6E
:100DC000086000BF0F48006800F000700028F9D0EC
:100DD00040F205700E4908600A480830006820F0AB
:100DE00003000849083108600846006840F0020026
:100DF000086000BF03480830006800F00C000828B5
:100E0000F8D10CBD00380240007000400854400783
:100E1000003C0240042808D14FF0E021096941F06C
:100E200004014FF0E022116107E04FF0E021096971
:100E300021F004014FF0E0221161704710B500F07D
:100E4000A9F910BD10B51548006840F470001349A9
:100E500008601348006840F0010011490860002054
:100E60000F49083108600E4800680E4908400C49D7
:100E700008600D48091D0860081F006820F48020E4
:100E8000091F0860002006490C310860FFF74CFF7D
:100E90004FF0006001498039086010BD88ED00E026
:100EA00000380240FFFFF6FE1030002410B501218B
:100EB000880700F0E1F830B1012024F057FA012151
:100EC000880700F001F810BDCA430282704721B1C3
:100ED000028842F00102028004E002884FF6FE73AD
:100EE0001A4002807047000010B5044655488442FD
:100EF00008D101210846FFF73DFE00210120FFF740
:100F000039FE9DE0B4F1804F08D101210846FFF77A
:100F100011FE00210120FFF70DFE91E04A488442B6
:100F200008D101210220FFF705FE00210220FFF772
:100F300001FE85E04548844208D101210420FFF7E5
:100F4000F9FD00210420FFF7F5FD79E040488442D7
:100F500008D101210820FFF7EDFD00210820FFF74F
:100F6000E9FD6DE03B48844208D101211020FFF7E4
:100F7000E1FD00211020FFF7DDFD61E036488442ED
:100F800008D101212020FFF7D5FD00212020FFF707
:100F9000D1FD55E03148844208D101210220FFF7FC
:100FA000E9FD00210220FFF7E5FD49E02C488442DD
:100FB00009D101210804FFF7DDFD00214FF4803045
:100FC000FFF7D8FD3CE02748844209D101214804BD
:100FD000FFF7D0FD00214FF40030FFF7CBFD2FE0ED
:100FE0002148844209D101218804FFF7C3FD002173
:100FF0004FF48020FFF7BEFD22E01C48844208D158
:1010000001214020FFF796FD00214020FFF792FDCF
:1010100016E01748844208D101218020FFF78AFD9D
:1010200000218020FFF786FD0AE01248844207D1A4
:1010300001218015FFF77EFD0021A015FFF77AFD45
:1010400010BD000000000140000400400008004006
:10105000000C00400010004000140040000401405B
:101060000040014000440140004801400018004099
:10107000001C00400020004030B502460020002344
:101080000024158A05EA0103958905EA010413B1D4
:101090000CB1012000E0002030BD1AB183890B4360
:1010A000838102E083898B43838170470022028819
:1010B000184B98420ED0184B98420BD0B0F1804F8D
:1010C00008D0164B984205D0154B984202D0154BCC
:1010D000984204D14FF68F731A404B881A43124B33
:1010E000984207D0114B984204D04FF6FF431A4064
:1010F0000B891A4302804B68C3620B880385054B3A
:10110000984202D0044B984201D18B7A0386012386
:101110008382704700000140000401400004004049
:1011200000080040000C0040001000400014004087
:101130001FB501210846FFF7EDFC4FF08040FFF797
:10114000D3FE2920029040F2E730ADF804000020E1
:10115000ADF80600ADF80C0001A94FF08040FFF794
:10116000A5FF012211469007FFF797FF1C208DF87D
:10117000000001208DF8030000208DF801000820F8
:101180008DF802006846FFF76DFC01218807FFF724
:101190009EFE1FBD0448006820B103480068401E41
:1011A00001490860704700000400002010B540F2BB
:1011B0002551234800F0D3F880B140F22551204852
:1011C00000F048F81E4800F083F9C4B21D480188B9
:1011D0000088401C1B4A10801B48445440F22441A4
:1011E000174800F0BCF848B340F22441144800F01E
:1011F00031F814480088D8B10021124802880088CC
:10120000401C104B1880104881540A21184602884F
:101210000088401C18800C4881540D200A491A4649
:101220001288885409A000F05FF900200549088061
:1012300003480088C4B202488088C4B210BD0000D0
:1012400000100140080000200802002025730D0A4C
:101250000000000010B50022002340F66A14A142ED
:1012600000D100BF0A1201249440A3B2DC430480E1
:1012700010BD21B1828942F40052828104E082894A
:101280004DF6FF731A408281704700001FB501219F
:101290001020FFF75FFC00F029F84FF4E1300090D8
:1012A0000020ADF80400ADF80600ADF808000C20F1
:1012B000ADF80A000020ADF80C0069460A4800F0BD
:1012C0009DF8FFF7BAFB012240F22551064800F0D5
:1012D00070F8012240F22441034800F06AF801212D
:1012E0000148FFF7C6FF1FBD001001401CB50121DA
:1012F0000846FFF7FFFB072209211148FFF7A8F86E
:1013000007220A210E48FFF7A3F800208DF80600F7
:1013100002208DF8040001208DF8070002208DF8CE
:1013200005000002009069460548FFF749F84FF4B0
:101330008060009069460248FFF742F81CBD00003B
:101340000000024002460020B1F5007F00D100BF3E
:1013500013880B400BB1012000E00020704770B5EE
:101360000246002400230025002040F66A16B14200
:1013700000D100BFC1F3421501F01F03012606FA98
:1013800003F3012D02D19689334006E0022D02D1EC
:10139000168A334001E0968A33400C12012606FA81
:1013A00004F41688344013B10CB1012000E0002091
:1013B00070BDF0B50346002400260025002040F64D
:1013C0006A17B94200D100BF1846C1F3421401F0B8
:1013D0001F06012707FA06F5012C01D10C3004E0A5
:1013E000022C01D1103000E014301AB107682F43ED
:1013F000076002E00768AF430760F0BD2DE9FF47D3
:1014000005460E460024A14600BFA046B08900B1A3
:1014100000BF2C8A24F44054F08804432C82AC8909
:1014200041F20C608443B0883189084371890843D4
:101430000443AC81AC8A24F44074B0890443AC8288
:101440006846FFF7A7FB2048854202D01F48854227
:1014500002D1DDF80C9001E0DDF80890A88900F4D5
:10146000004040B109EBC90000EB091031684900A8
:10147000B0FBF1F707E009EBC90000EB0910316898
:101480008900B0FBF1F76420B7FBF0F004012009FC
:10149000642101FB1078A88900F4004040B132209B
:1014A00000EBC800B0FBF1F000F00700044308E0D7
:1014B000322000EB08106421B0FBF1F000F00F00C7
:1014C00004432C81BDE8FF87001001400014014057
:1014D00001468888C0F308007047C1F30802828083
:1014E000704700BFFEE700000FB4054B10B503A91D
:1014F000044A029801F0DAFF10BC5DF814FB00000A
:10150000F1BA0008040200201CB501210220FFF7F7
:10151000F1FA01210220FFF7EDFA01210820FFF77F
:10152000E9FA01210820FFF7E5FA01210820FFF779
:10153000E1FA062203212248FEF78AFF062205214E
:101540001F48FEF785FF02208DF8040003208DF868
:10155000050000208DF806008DF807000820009097
:1015600069461748FEF72CFF202000906946144872
:10157000FEF726FF01208DF80400C00200906946A6
:101580001048FEF71DFF4FF48050009069460D484B
:10159000FEF716FF4FF40050009069460948FEF729
:1015A0000FFF4FF480510748FEF778FF4FF40060BB
:1015B00004491831086081000248FEF76CFF1CBD29
:1015C00000040240000C024000B585B00121C803B0
:1015D000FFF7A0FA4FF44040ADF800004FF48270DE
:1015E000ADF802000020ADF80400ADF80600ADF83B
:1015F00008004FF40070ADF80A000020ADF80C00B0
:10160000ADF80E0069460448FFF744FB012102488B
:10161000FFF734FB05B000BD003C004002E008C805
:10162000121F08C1002AFAD170477047002001E05C
:1016300001C1121F002AFBD1704770B50446002576
:1016400008E02168481C20600878303805EB8501E7
:1016500000EB41052168087800F004F80028F0D17B
:10166000284670BD0146302903DB392901DC012001
:1016700070470020FCE7000010B55421074800F037
:1016800096FD00220A21064823F0D8FE054908608D
:1016900002F0A0F900200449087010BD702200205B
:1016A000B13A0008740000207000002030B50346F5
:1016B000B1F90040B2F90050AC4202DDB1F900408E
:1016C00001E0B2F900401C80B1F90240B2F90250C9
:1016D000AC4202DDB1F9024001E0B2F902405C80A7
:1016E000B1F90440B2F90450AC4202DAB1F9044055
:1016F00001E0B2F904409C80B1F90640B2F906500D
:10170000AC4202DAB1F9064001E0B2F90640DC80F1
:101710000120B3F90040B3F90450AC4205DCB3F941
:101720000240B3F90650AC4200DD002030BDF8B5F0
:1017300004460D4616460027B4F90000B5F900101E
:10174000884212DBB4F90200B5F9021088420CDBC2
:10175000B4F90400B5F90410884206DCB4F90600B7
:10176000B5F90610884200DC01270FB90020F8BD4A
:101770000EB90120FBE72088ADF800006088ADF8C5
:10178000020032466946284600F0A7F808B9002052
:10179000EDE7A088ADF800006088ADF802003246A1
:1017A0006946284600F099F808B90020DFE720884C
:1017B000ADF80000E088ADF80200324669462846E0
:1017C00000F08BF808B90020D1E7A088ADF8000040
:1017D000E088ADF8020032466946284600F07DF800
:1017E00008B90020C3E70120C1E70246B2F90000B2
:1017F000B1F90430984213DCB2F90400B1F90030B9
:1018000098420DDBB2F90200B1F90630984207DCCC
:10181000B2F90600B1F90230984201DB01207047AD
:101820000020FCE7F8B504460D461646B4F904005E
:10183000B5F90010884211DBB4F90600B5F90210C1
:1018400088420BDBB4F90000B5F90410884205DCCE
:10185000B4F90200B5F90610884201DD0120F8BD97
:101860000EB90020FBE72088ADF800006088ADF8D5
:10187000020032466946284600F02FF808B10020E1
:10188000EDE7A088ADF800006088ADF802003246B0
:101890006946284600F021F808B10020DFE72088DB
:1018A000ADF80000E088ADF80200324669462846EF
:1018B00000F013F808B10020D1E7A088ADF80000CF
:1018C000E088ADF8020032466946284600F005F887
:1018D00008B10020C3E70120C1E72DE9FC5F054600
:1018E0000E4614464FF0000AB6F90000B5F9001094
:1018F000884213DBB6F90000B5F9041088420DDC0C
:10190000B6F90200B5F90210884207DBB6F9020009
:10191000B5F90610884201DC4FF0010ABAF1000F58
:1019200002D10020BDE8FC9F002C01DC0120F9E77A
:1019300028460DF029FD834600EBDB704710284652
:101940000DF07EFC834600EBDB704FEA60084745F4
:1019500001DA384600E0404681464C4500DD4C4601
:101960002888ADF800002888204400B2ADF80400B3
:101970006888ADF802006888204400B2ADF806001F
:10198000002231466846FFF7A8FF80B1BDF8040089
:10199000204400B2ADF80400BDF80600204400B2B7
:1019A000ADF806003146684620F0A8FBBAE7E888A3
:1019B000001B00B2ADF80200E888ADF80600002276
:1019C00031466846FFF789FF80B1BDF80400204426
:1019D00000B2ADF80400BDF80200001B00B2ADF883
:1019E00002003146684620F089FB9BE7A888001B6F
:1019F00000B2ADF80000A888ADF80400002231461E
:101A00006846FFF76AFF80B1BDF80000001B00B216
:101A1000ADF80000BDF80200001B00B2ADF80200F6
:101A20003146684620F06AFB7CE76888ADF8020022
:101A30006888204400B2ADF80600002231466846AE
:101A4000FFF74BFF80B1BDF80000001B00B2ADF8FE
:101A50000000BDF80600204400B2ADF80600314693
:101A6000684620F04BFB5DE701205BE710B5B1F95C
:101A70000030B2F90040A34202DAB1F9003001E0CF
:101A8000B2F900300380B1F90230B2F90240A3424A
:101A900002DAB1F9023001E0B2F902304380B1F963
:101AA0000430B2F90440A34202DDB1F9043001E090
:101AB000B2F904308380B1F90630B2F90640A3428E
:101AC00002DDB1F9063001E0B2F90630C38010BD85
:101AD0002DE9FE4306461EB16B49F068086003E03D
:101AE00010F02EFA684908606748006818B900BF0E
:101AF00000BFBDE8FE8364480068C06910B900BF3C
:101B000000BFF6E760480068006910B900BF00BF79
:101B1000EFE7002232215C48006810F0CDFA5A4904
:101B20000968D1F8680120F051F957480068D0F8E9
:101B30006C0128B154490968D1F86C0120F046F9CC
:101B400051490968D1F8740120F040F94E490968FB
:101B5000D1F8780120F03AF94B490968D1F87C01B5
:101B600020F034F948480068D0F8680138B90020FE
:101B700045490968A1F8500100BF00BF79E020F095
:101B800093FB25F0B1FA40480068B0F8500100B965
:101B90006FE000222F213C48006810F08DFA3A488F
:101BA000006810F06FFA28B13748006890F82D00EF
:101BB000012800D049E000BF33480068406A00288F
:101BC000FAD13148006887692F48006880692E493A
:101BD00009680969884203D12B480068406902E01E
:101BE00029480068006980462748006810F0BAF963
:101BF0000546002422E02448006800F59870005D46
:101C000000B11AE020480068303000EBC4001E49E3
:101C1000CDE9008502900968303101EBC4031A490F
:101C20000968D1F8580118490968D1F858112A46AD
:101C3000D1F818C03946E04700BF641C124800685C
:101C4000B0F85001A042D6D800BF4FF480710E48C2
:101C5000006830301AF069F820210B48006800F560
:101C600098701AF062F8002007490968A1F850013D
:101C700000BF00F00BF8002233210348006810F089
:101C80001BFA00BF35E700002800002010B5002433
:101C900016E0C4EBC4000C4951F8200030B1C4EB8D
:101CA000C401094A52F8210016F002FEC4EBC40137
:101CB000054A02EB81001C211AF091F8601CC4B2A5
:101CC000042CE6DB10BD0000D42200200146094AA6
:101CD00010680BE042688A4202D002688A4204D14E
:101CE000027E22F00102521C027640690028F1D1E6
:101CF0007047000084000020014A4169116070476C
:101D00008400002002490968416101490860704768
:101D10008400002010B50421014800F048FA10BDED
:101D20006422002010B52021014800F040FA10BDC7
:101D30007C2200202DE9FF4704460D4616461F462B
:101D4000DDE90C896FB9B8F5807F0AD100202080C9
:101D50006080681E00B2A080701E00B2E080BDE806
:101D6000FF8700200090019002900390681E00B24F
:101D7000ADF80400701E01B2ADF80A10681E00B282
:101D8000ADF80C00701E01B2ADF80E104B46424685
:101D90003946684620F0E8F84B464246394601A8E5
:101DA00020F0E2F84B464246394602A820F0DCF823
:101DB0004B464246394603A820F0D6F8BDF900004C
:101DC000BDF90410884202DABDF9000001E0BDF956
:101DD0000400BDF90810BDF90C20914202DABDF9EA
:101DE000081001E0BDF90C1088420BDABDF90000C3
:101DF000BDF90410884202DABDF900000DE0BDF91A
:101E000004000AE0BDF90800BDF90C10884202DAAE
:101E1000BDF9080001E0BDF90C002080BDF900000B
:101E2000BDF90410884202DDBDF9000001E0BDF9F2
:101E30000400BDF90810BDF90C20914202DDBDF986
:101E4000081001E0BDF90C1088420BDDBDF900005F
:101E5000BDF90410884202DDBDF900000DE0BDF9B6
:101E600004000AE0BDF90800BDF90C10884202DD4B
:101E7000BDF9080001E0BDF90C00A080BDF9021019
:101E8000BDF90600814202DABDF9020001E0BDF9A8
:101E90000600BDF90A20BDF90E108A4202DABDF92A
:101EA0000A1001E0BDF90E1088420BDABDF90210EC
:101EB000BDF90600814202DABDF902000DE0BDF96C
:101EC00006000AE0BDF90A10BDF90E00814202DAEF
:101ED000BDF90A0001E0BDF90E006080BDF90210F5
:101EE000BDF90600814202DDBDF9020001E0BDF945
:101EF0000600BDF90A20BDF90E108A4202DDBDF9C7
:101F00000A1001E0BDF90E1088420BDDBDF9021088
:101F1000BDF90600814202DDBDF902000DE0BDF908
:101F200006000AE0BDF90A10BDF90E00814202DD8B
:101F3000BDF90A0001E0BDF90E00E08000BF0EE728
:101F40000EB5684617F062F9044800900448019005
:101F500004480290684617F047F90EBD691F000853
:101F60002F920108E79101082DE9F743054616462F
:101F70000024154C23F0EAF98146334629462046D1
:101F8000019A17F00DFB8046B8F1000F0DD100BF8C
:101F900000BF34273A460021204619F080FE00BFDA
:101FA000780720630020BDE8FE8300202063606A7C
:101FB00018B9484623F0BCF96062606A08B901208C
:101FC00060622046EFE70000A022002010B5142137
:101FD0000F4800F0ECF817F095FA044600BF1CB962
:101FE00000BF00BF00BFFEE700BF14B900BF00BFC5
:101FF00010BD0849204617F055FB0749204617F049
:1020000053FB0649204617F04BFB00BFF0E70000EA
:1020100088220020E5920108A5930108C1920108D9
:102020002DE9FF470446884614B90FF089FF04469E
:102030000CB9BDE8FF87204610F02BF800B9F8E78F
:10204000E06AC0F3404010B100BF00BFF1E7B8F153
:10205000000F03D10020A4F85001EAE70020ADF8FA
:102060000800ADF80A0020460FF07CFF401E00B2C9
:10207000ADF80C0020460FF0ECFF401E00B2ADF8AA
:102080000E0002AA41466846FFF710FB064606B955
:10209000CFE794F82D0002280CD102982063039812
:1020A00060630120A4F8500100223121204610F085
:1020B00003F8BEE76A462D2120460FF0FDFF0746D4
:1020C000012F00D0B5E700250BE004F1300000EB54
:1020D000C50100226846FFF72AFB00B1A9E7681C8A
:1020E00085B2B4F85001A842EFDCE946B4F85001DB
:1020F000202804DB0020A4F850010DF10809B4F8F1
:10210000502104F1300101EBC20049460DF008F8FE
:10211000B4F85001401CA4F850010022312120469F
:102120000FF0CAFF00BF84E770B50546284600F0EF
:1021300013F8044600260CE02146284600F024F857
:1021400006462146284600F086F8204616F0B0FBE9
:102150003446002CF0D170BD014609B9002070470B
:102160004868FCE770B5064600243046FFF7F4FFE8
:10217000054605E0641C2946304600F005F8054692
:10218000002DF7D1204670BD02460B461068001D99
:1021900003441868704702460B46106803441868E9
:1021A0007047014609B9002070478868FCE70022A3
:1021B00042608260CA1C22F003010160704770B562
:1021C0000446216801F1080019F052FB0546A5B14B
:1021D00000222946204624F0AFF9294620466268AD
:1021E00024F09CF9606820B12A462046616824F0FA
:1021F000A3F96560A06800B9A560284670BD70B5F8
:102200000446216801F1080019F032FB0546A5B12A
:1022100000222946204624F081F929462046A2685A
:1022200024F08AF9A06820B12A462046A16824F04B
:1022300075F9A560606800B96560284670BD014603
:1022400009B901207047486818B9886808B90120A1
:10225000F8E70020F6E72DE9F04104460D460CB9F9
:10226000BDE8F0812046FFF777FFA8420FD129464D
:102270002046FFF789FF6060606810B90020A06009
:102280002FE000222046616824F056F929E020461C
:10229000FFF787FFA8420FD129462046FFF77BFFB3
:1022A000A060A06810B9002060601AE000222046FB
:1022B000A16824F033F914E029462046FFF76BFFAC
:1022C000064629462046FFF75FFF07463A46314655
:1022D000204624F023F932463946204624F02CF9D2
:1022E00000BF00BFBCE710B504462068806818B185
:1022F00020682146826890472068006828B12068DD
:10230000006820602046FFF7EEFF10BD0146886898
:1023100018B18868B0F91A0070470020FCE7014640
:10232000886820B18868407FC0F3011070470020A2
:10233000FCE72DE9F04104460D4616461DB916B9D5
:102340000120BDE8F08120461AF049FBA068808A90
:10235000284400B2A1688882A068C08A304401B2D3
:10236000A068C18201233246294620461DF0E8FEBE
:1023700000220C2120461FF0B9F80746012F01D09A
:102380003846DEE720461DF003FE0120D9E7F7B509
:1023900082B004460E4614B9049805B0F0BD00BFE3
:1023A0006122314620461CF0BFFD0190019D00BF17
:1023B000DDB12868C8B100BF6222314620461CF05A
:1023C000B3FD01900198C0B207466FB13A462B6841
:1023D0002846049998470190BDF80400ADF8100014
:1023E0009DF806008DF8120000BF0498D5E70000A4
:1023F0002DE9F04F99B004468B4691469A46229DAE
:10240000608C20F00400001D6084A4F820902A89CC
:10241000594620461CF088FD1890A4F820A02A896F
:10242000594620461CF080FD1790608C20F0040077
:102430006084DDE9171088420BD1DDE9171088426E
:1024400007D1DDE917100FF089F810B119B0BDE818
:10245000F08FA4F820902A89594620461CF064FD8C
:102460001890A4F820A0594620460AF047FC169080
:102470002989169A1068189A21F092FB28890B284E
:1024800033D147F6FF711898884202D017988842D6
:102490002BD120461DF040F9009000EBD070471082
:1024A00020461BF0E1F9009000EBD0704FEA600885
:1024B00047F6FF711898884208D1781C08F101018D
:1024C000884200DA01E008F10100189047F6FF7138
:1024D0001798884208D1781C08F10101884200DA77
:1024E00001E008F10100179000BF2248FFF767FEE6
:1024F000064600BF1EB900BF00BF00BFFEE700BF19
:1025000006B9A3E71898F0601798306134602889FD
:10251000B080C6F808B001A80CF00CF8314601A84C
:102520000CF0BBF8144901A80CF088F8134803908C
:1025300000BF134901A80CF08FF8FF22002101A869
:102540000CF09BF8298801A80CF08DF8698801A887
:102550000CF06FF8E868089000BF01A9002081F82E
:102560004A0000BF2869079000BF01A80CF0ACF832
:1025700000BF6BE794220020B5CB0208A5CE02086D
:10258000D5CD020810B514210148FFF710FE10BD8B
:10259000942200202DE9FE4F04460F4690464FF04E
:1025A000000900254CE1E06800EBC5004068C0F37D
:1025B000406000B143E1E16801EBC501496821F0E9
:1025C0007F401FF0C9FB064626EA070008B9012034
:1025D00000E00020029026EA080008B9012000E08F
:1025E00000200190DDE90101814270D0E06850F8DF
:1025F00035A04FF0000B6A461021504620F07FFEB8
:1026000010B14FF0010B98E06A461121504620F0BE
:1026100076FE10B14FF0010B8FE06A461221504652
:1026200020F06DFE10B14FF0010B86E06A461321D9
:10263000504620F064FE10B14FF0010B7DE06A4679
:102640001521504620F05BFE10B14FF0010B74E0F5
:102650006A461421504620F052FE10B14FF0010B93
:102660006BE06A460A21504620F049FE10B14FF057
:10267000010B62E06A466A21504620F040FE10B12C
:102680004FF0010B59E06A466B21504620F037FEAF
:1026900010B14FF0010B50E06A460121504620F086
:1026A0002EFE10B14FF0010B47E06A460421504660
:1026B00020F025FE10B14FF0010B3EE06A460221EA
:1026C000504620F01CFE18B14FF0010B35E0B5E08C
:1026D0006A460321504620F012FE10B14FF0010B64
:1026E0002BE06A460521504620F009FE10B14FF05C
:1026F000010B22E06A460621504620F000FE10B190
:102700004FF0010B19E06A463221504620F0F7FDE8
:1027100010B14FF0010B10E06A466D21504620F0D9
:10272000EEFD10B14FF0010B07E06A466C215046F8
:1027300020F0E5FD08B14FF0010BBBF1000F02D016
:102740000320BDE8FE8F6A466821504620F0D7FD81
:1027500010B14FF0020970E06A466921504620F03E
:10276000CEFD10B14FF0020967E06A466D21504678
:1027700020F0C5FD10B14FF002095EE06A466C2101
:10278000504620F0BCFD10B14FF0020955E06A46FA
:102790003721504620F0B3FD10B14FF002094CE054
:1027A0006A463821504620F0AAFD10B14FF00209C8
:1027B00043E06A463521504620F0A1FD10B14FF0AC
:1027C00002093AE06A464021504620F098FD10B1D7
:1027D0004FF0020931E06A464521504620F08FFD56
:1027E00010B14FF0020928E06A464121504620F01E
:1027F00086FD10B14FF002091FE06A4642215046A3
:1028000020F07DFD10B14FF0020916E06A46432129
:10281000504620F074FD10B14FF002090DE06A46F9
:102820004921504620F06BFD10B14FF0020904E041
:10283000B9F1000F01D14FF0010900BF00BF6D1CBD
:10284000608CC0F3C500A8423FF6ADAE484678E7BD
:1028500001480068704700002800002070470146CA
:10286000C1F30412072A00DD0722D0B2704700002E
:1028700001464FF6FF70814201D13F20704709B9F0
:102880000020FBE7702902DA0948405CF6E7A1F175
:10289000700081B20748006838B10748006881427B
:1028A00003D204480068405CE8E70020E6E7000047
:1028B000BE1403089C000020A400002010B50021D5
:1028C00001480CF0B9FD10BDC1B4020810B51821C3
:1028D0000348FFF76CFC012022F0EEFD10BD000064
:1028E000402200202DE9F04105460F4616460DB95D
:1028F000BDE8F081284620F0FAFC8046394628469B
:102900000A4A126890470746E8193146074A126892
:10291000904706463C4603E0A019285C2855641CF5
:10292000A8EB0600A042F7D200BFE1E7DC000020E0
:102930002DE9F04106460C4617461D46294630460D
:10294000084A126890472060206830B129688819C9
:102950000021044A1268904700E000203860BDE87A
:10296000F0810000D40000202DE9F04F85B004462E
:102970000F4692469846DDE90E560DB1002028809C
:102980001CB9002005B0BDE8F08F207808B9002000
:10299000F8E70FB90020F5E74FF0000906F0020054
:1029A00010B906F0040098B1002000E0401C215C42
:1029B0000A2905D0215C0D2902D0215C0029F5D11E
:1029C000215C01B1401C15B14FF0FF312980D9E7DE
:1029D00006F0020008B141F6FF780020049036E0CE
:1029E00000200390049808B9012000E0002003A90A
:1029F000CDE9006102900499601843465246394679
:102A000023F022F883460398A8EB00000FFA80F821
:102A1000039848440FFA80F9BBF1000F00D11CE085
:102A200004985844049020780A2802D020780D2871
:102A300000D112E00498205C0A2803D00498205C9E
:102A40000D2803D10498401C049006E000BF0498B0
:102A5000205C10B1B8F1000FC2DC00BF049870B95F
:102A600004A92046084A12689047834635B10022DF
:102A70005946384615F0F6FE0FFA80F900BF0DB141
:102A8000A5F8009004987DE7D40000202DE9F047D8
:102A900006468846174606B10FB9BDE8F0873046AE
:102AA00020F025FC8146384620F021FC044604B97C
:102AB000F3E704EB090A414630460B4A1268904797
:102AC0008046554603E0281B305C70556D1E08EBB0
:102AD0000400A842F7D906EB08002246394618F050
:102AE0009FFF00BFD9E70000DC000020014609B9C4
:102AF00000207047B1F59C4F05D349F6A57081427F
:102B000001D80120F5E7B1F57F4F05D94FF65E708A
:102B1000814201D80120ECE7B1F5405F04D3B1F563
:102B2000415F01D20120E4E70020E2E773B582B003
:102B30000546039801902A4600210846019B23F090
:102B400087FA0646002001900024701C18F090FEC1
:102B5000044600BF1CB900BF00BF00BFFEE700BFB6
:102B600014B9002004B070BD2A46711C2046039B96
:102B700023F06EFA2046F5E72DE9F04781460E4630
:102B800014461F46DDF820A035461BE0600800FB18
:102B9000075529464846D047B0F1000809DD04F042
:102BA000010080F00100C0EB5404E8190546064618
:102BB00008E0B8F1000F02DA6408354602E0284662
:102BC000BDE8F087002CE1D10020F9E72DE9FF4FA7
:102BD0008BB0074600250C9800B9FA4FEAE20E9830
:102BE000007825280AD02A466D1C0E990878DDE960
:102BF0000C13B8470E98401C0E90DBE20E98401C58
:102C00000E90002400BF0E9800782B2819D004DC09
:102C100020281ED023282CD123E02D2809D03028AD
:102C200027D144F001040E98401C0E9001200A9018
:102C300022E044F002040E98401C0E9001200A90FD
:102C40001AE044F004040E98401C0E9001200A90F3
:102C500012E044F008040E98401C0E9001200A90E7
:102C60000AE044F010040E98401C0E9001200A90D7
:102C700002E000200A9000BF00BF0A980028C2D1DD
:102C800080460E990878FEF7EDFC20B10EA8FEF7FD
:102C9000D4FC804612E00E9800782A280ED11899AC
:102CA00001C91891002804DA44F00204C0F10008B8
:102CB00000E080460E99491C0E9100BF4FF00009BC
:102CC0000E9800782E281FD144F480640E98401C82
:102CD0000E900E990878FEF7C5FC20B10EA8FEF7FD
:102CE000ACFC814610E00E9800782A280CD1189987
:102CF00001C91891002801DD014600E00021894644
:102D00000E99491C0E9100BF0E9800786C280AD0CD
:102D100004DC682816D06A2835D128E0742820D031
:102D20007A2830D129E044F480740E98401C0E902B
:102D30000E9800786C2804D144F400740E98401C5E
:102D40000E9021E044F080040E98401C0E900E98E6
:102D50000078682804D144F040040E98401C0E907E
:102D600012E044F480740E98401C0E900CE044F481
:102D700000740E98401C0E9006E044F480740E9887
:102D8000401C0E9000E000BF00BF0E98007869283C
:102D90001DD00EDC622821D006DC25287ED05028EC
:102DA0001AD058287BD115E0632879D06428F9D14E
:102DB0000CE0732875D004DC6F280ED07028F1D198
:102DC00009E0752804D07828ECD102E000BF00BFEC
:102DD00000BF00BF00BF00BF00BF00BF0E9800785B
:102DE000782803D00E980078582801D1102623E0C7
:102DF0000E980078702803D00E98007850280CD1D7
:102E0000102644F0100444F480740E98407856283C
:102E100012D10E98401C0E900EE00E9800786F288C
:102E200001D1082608E00E980078622801D1022618
:102E300002E00A2624F010040E980078582803D0E7
:102E40000E980078502801D144F020040E980078A4
:102E5000692805D00E980078642801D024F00C046D
:102E600004F4806008B124F001040E980078692809
:102E700003D00E98007864287CD104F40070B8B3B5
:102E80001898C01D20F007001890D0E900AB189AE0
:102E9000083218920020CDE9069803E073E17CE146
:102EA000F2E01CE1CDE904600894BAEB00017BEB91
:102EB000000001DA012000E0002000210290084615
:102EC000B1EB0A0170EB0B0002DA5046594605E0FF
:102ED00000200146B0EB0A0061EB0B01CDE90001D7
:102EE0002A463846DDE90C1300F044FA0546C7E0EF
:102EF000FFE704F48070D0B1189850F804AB189034
:102F00004FEADA70CDE9039802960594BAF1000F02
:102F100001DD514601E0CAF10001CDE900102A4669
:102F20003846DDE90C1300F0E7F90546A8E004F0A7
:102F3000400028B1189810F8041B1890C8B20DE092
:102F400004F0800028B1189830F8041B189008B2DB
:102F500004E0189800681899091D189182464FEAF4
:102F6000DA70CDE9039802960594BAF1000F02DDFC
:102F7000514602E00BE0CAF10001CDE900102A46FB
:102F80003846DDE90C1300F0B7F9054678E00E98F5
:102F90000078562818D1189850F804AB1890DAF831
:102FA00004000068099009980090DAF800300D9844
:102FB000421B0C9841193846FFF708FE05440020D3
:102FC00009905DE03534000804F40070D0B1189821
:102FD000C01D20F00700CDE9069808941890002045
:102FE000CDE904600290189903C9189A0832189222
:102FF000CDE900012A463846DDE90C1300F0BAF9A4
:1030000005463DE004F4807098B10022CDE90398B4
:1030100002960594189800681899091DCDE90002D8
:1030200018912A463846DDE90C1300F065F905468B
:1030300026E004F0400028B1189810F8041B1890FE
:10304000C8B20DE004F0800028B1189830F8041BD5
:10305000189088B204E0189800681899091D189112
:1030600082460020CDE900A0CDE9039802960594A0
:103070002A463846DDE90C1300F03EF9054600BF4C
:103080000E98401C0E9093E0012604F0020050B907
:1030900005E02A466D1C2020DDE90C13B8473046B8
:1030A000761C4045F5D3189911F8043BD8B22A464E
:1030B0006D1C1891DDE90C13B84704F0020050B103
:1030C00005E02A466D1C2020DDE90C13B847304688
:1030D000761C4045F5D30E98401C0E9068E0189879
:1030E00050F804AB18905046B9F1000F01D0494692
:1030F00001E04FF0FF310A46014600E0491C0B7821
:103100001BB11300A2F10102F8D10E1A04F4806081
:1031100028B14E4501D2304600E04846064604F04C
:10312000020050B905E02A466D1C2020DDE90C1391
:10313000B8473046761C4045F5D306E01AF8010B37
:103140002A466D1CDDE90C13B8479AF8000040B11F
:1031500004F480600028F1D05FEA0900A9F10109B8
:10316000ECD104F0020050B105E02A466D1C20208D
:10317000DDE90C13B8473046761C4045F5D30E9870
:10318000401C0E9014E02A466D1C2520DDE90C132E
:10319000B8470E98401C0E900AE02A466D1C0E9906
:1031A0000878DDE90C13B8470E98401C0E9000BF5C
:1031B00000BF00BF0E98007800287FF410AD0D9876
:1031C000854201D2284601E00D98401E02460020AB
:1031D000DDE90C13B84728460FB0BDE8F08F2DE9A4
:1031E000FF4F85B08346DDE9158ADDE91349DDE946
:1031F0001775129E05F00200F8B94FB105F00100F5
:1032000030B1B9F1000F02D105F00C0000B17F1E02
:1032100003E030222046641C3254544501D2202C55
:10322000F7D303E030222046641C325405F001003D
:1032300018B1BC4201D2202CF4D305F01000B0B379
:1032400005F4806050B94CB1544501D0BC4205D161
:10325000641E1CB1B8F1100F00D1641EB8F1100F3C
:1032600009D105F0200030B9202C04D27822204664
:10327000641C325415E0B8F1100F09D105F020009C
:1032800030B1202C04D258222046641C325408E06D
:10329000B8F1020F05D1202C03D262222046641C13
:1032A0003254202C03D230222046641C3254202C6D
:1032B00016D2B9F1000F04D02D222046641C3254DE
:1032C0000EE005F0040020B12B222046641C32548D
:1032D00006E005F0080018B120222046641C325494
:1032E000CDE90275CDE90064584606A90EC900F083
:1032F000A2F809B0BDE8F08F2DE9FF4F8FB08046EE
:10330000DDE91FABDDE91D96219D1C9C00270CB952
:1033100025F0100505F4806000B1E4B100BFB4FBF6
:10332000F6F106FB1141C8B20A2802DA00F13001B9
:1033300007E005F0200109B1412100E061210144CD
:103340000A39CBB239467F1C07AA5354B4FBF6F4B2
:103350000CB1202FE3D307A8CDE904AB8DE881029F
:1033600003960695404610A90EC9FFF738FF13B023
:10337000BDE8F08F2DE9FF4F8FB0DDE9217BDDF84F
:103380009080209EDDE91C454FF00009002184EA71
:1033900001006940084301D128F0100808F480605A
:1033A00028B1002184EA0100694008432DD000BF04
:1033B00032463B4620462946FCF702FF02F0FF0A50
:1033C000BAF10A0F02DA0AF1300007E008F0200033
:1033D00008B1412000E0612050440A38C2B248469A
:1033E00009F1010907A90A5432463B4620462946FD
:1033F000FCF7E6FE04460D46002184EA0100694020
:10340000084302D0B9F1200FD2D32398CDE9036B42
:10341000CDE9050807A91E98CDE9001902900FA86B
:103420000FC8FFF7DCFE13B0BDE8F08F9A4200D260
:103430008854704770472DE9FF5F05461446DDE963
:103440000EA6DDE91087A34607F0020078B907F061
:10345000010060B9B14607E02246641C2020039BAE
:103460000199A84709F10109C145F5D300BF08E05A
:103470002246641C711E0E461AF80100039B019936
:10348000A847002EF4D107F0020050B105E0224613
:10349000641C2020039B0199A847A4EB0B00404526
:1034A000F5D3204604B0BDE8F09F00002DE9FF4FA2
:1034B0008DB09B460F460446002606E025280BD01B
:1034C0005A460F999047641C761C20780028F5D145
:1034D00011B03046BDE8F08F0025A846012298497A
:1034E00000E0054314F8013F203B02FA03F00842D4
:1034F000F7D120782E2817D114F8010F45F00405D4
:103500002A280ED06FF02F022078A0F1300109296F
:103510000AD808EB880102EB410100EB0108641CAA
:10352000F2E757F8048B641C20786C280DD004DC7B
:103530004C2812D06A2811D104E074280DD07A28C2
:103540000CD10AE045F4001507E0617845F48015D8
:10355000814202D1641C05F58015641C2278692A19
:1035600045D008DC002AB3D0582A69D0632A10D08D
:10357000642A08D13BE0702A67D0732A13D0752AD9
:103580005CD0782A5CD010465A460F999047761C3A
:10359000D3E017F8040B8DF8000000208DF801002F
:1035A000E946012003E057F8049B4FF0FF3069071C
:1035B0004FF0000501D40AE06D1C45450DDA854247
:1035C000FADB19F805100029F6D106E06D1C8542DA
:1035D000FCDB19F805100029F8D12E4404E019F895
:1035E000010B5A460F9990476D1EF8D2A5E00A20AC
:1035F0000021CDE90801C5F3025002280DD001CF0A
:10360000C117031E71F100030DDA4FF0000CD0EB6F
:103610000C006CEB01012D2308E0FF1D27F00707CC
:10362000F7E80201EDE72B0504D52B238DF82830B0
:1036300001233BE0EB0739D02023F7E70A2000E025
:1036400010200021CDE9080107E01020002145F0FD
:103650000405CDE908014FF00808C5F3025002281F
:103660000FD001CF00214FF0000A2B071FD5702A81
:103670000DD0DDE908C38CF0100C5CEA030C0CD013
:1036800015E0FF1D27F00707F7E80201EBE74022EE
:103690008DF828204FF0010A0BE050EA010306D014
:1036A00030238DF828308DF8292002239A46582A95
:1036B00004D024A20DF120090B9209E026A2F9E71B
:1036C000DDE90823FCF77CFD0B9B9B5C09F8013DC1
:1036D00050EA0102F4D1ADEB0900203008906807F0
:1036E00001D44FF001080899884502DDA8EB0100DC
:1036F00000E000208046002506E00AA85A46405D0A
:103700000F9990476D1C761C5545F6DB04E0302080
:103710005A460F999047761CB8F10001A8F10108AC
:10372000F5DC05E019F8010B5A460F999047761C15
:103730000899481E08900029F4DC641CC5E60000C6
:103740000928010030313233343536373839616277
:10375000636465660000000030313233343536373B
:103760003839414243444546000000002DE9FC5FE2
:1037700007460E4615469846324629466846FDF7E6
:1037800095FF50B3BDF90200B5F90210411A0C982B
:1037900000FB0179BDF90000B5F90010401A814421
:1037A000BDF900004044B6F90010A0EB010A6846DC
:1037B0000BF096FD834600240CE01AF8041019F86B
:1037C00004208818FF2801D9FF2100E001460AF8EB
:1037D0000410641C5C45F0D300BFBDE8FC9F2DE9DC
:1037E000F04104460E46002774B13146204600F0F1
:1037F0002DF80546B5F5004F05D20C2D01D9284608
:1038000000E00C20074600BF3846BDE8F0810246C4
:1038100000BF481E084018B100BF00BF00BFFEE750
:1038200000BF481E1040101A704710B502464B1ECC
:1038300013444C1E23EA040000BF4B1E0B401BB177
:1038400000BF00BF00BFFEE700BF10BD024600BFC3
:10385000481E084018B100BF00BF00BFFEE700BF10
:10386000481E10444B1E9843704700002DE9F04756
:1038700080460E46444601206086002500270DE064
:1038800056F8270028A1FCF721FD10B1681C85B26D
:1038900002E0608E401C6086781C87B256F82700D4
:1038A00020B156F8270000780028E9D1208EA842E0
:1038B00001D1BDE8F087A06A20B1A06A14F0F8FF3A
:1038C0000020A062E06A20B1E06A14F0F1FF00205D
:1038D000E062E80017F0CCFFA06200BFA06A18B950
:1038E00000BF00BF00BFFEE700BF680017F0C0FFC9
:1038F000E06200BFE06A18B900BF00BF00BFFEE78A
:1039000000BFA06A08B1E06A00B900254FEA450A85
:10391000D4F82C9052460021484618F0C0F900BF58
:10392000258600BFC5E700000A0000002DE9F0472A
:10393000074689469246F87A00F00700022801D12E
:10394000484600E05046064606EB4600C01C20F004
:1039500003000C30F11C21F0030100EB010840468C
:1039600017F086FF044600BF1CB900BF00BF00BFB0
:10397000FEE700BF14B90020BDE8F08725462C46BD
:1039800005F10C00286006EB4600C01C20F0030186
:1039900005F10C0008446860A6602046ECE77CB5A1
:1039A00005460C4605F114012046FDF71EFF08B937
:1039B00001207CBD00208DF8000001946A4613218F
:1039C00028461DF093FD9DF8000008B90020F0E79F
:1039D0000120EEE710B50120074908700748FEF7FF
:1039E000BBFB20B90648006821F064FE03E00448F0
:1039F000006821F06BFE10BD7000002070220020D6
:103A00007400002010B5044694F8500000F0010046
:103A100070B9B4F8400000280ADDB4F840004FF651
:103A2000FF71884204D0B4F84000401EA4F8400062
:103A3000B4F84000D0B9A06B20B194F8500000F069
:103A4000010098B121461948FEF705FCFFF7C2FFB7
:103A5000E06810B12046E1688847206910B120462F
:103A600021698847204614F023FF1EE0E06B4042A6
:103A70002063A06BC8B194F8501001F0010111B996
:103A8000616B4942216394F85010C94394F8502067
:103A900061F3000284F85020206AA16A2162A062CA
:103AA000E06AA16BE162A06300BF10BD702200203C
:103AB0002DE9F04180464248007880F001004049FD
:103AC00008704048FEF748FB044674E0E06C21F0C3
:103AD0002FFC064621F03AFCE06400203A490870C9
:103AE00094F85000C0F3400035490978884254D01A
:103AF0003348017894F8500061F3410084F8500095
:103B0000206B871994F85000C0F3800010BB206B25
:103B100000281FDC002F1DDB94F84A0000F0010094
:103B200060B9606950B12046616988470546206ADE
:103B300028442062A06A2844A06200BFA06810B197
:103B40002046A168884794F8500020F00400001D2A
:103B500084F85000206B30442063206B00281BDB6E
:103B6000D4E90B10884201DDE06A20632046E16958
:103B700088470546606AA84206D06562606818B149
:103B80002946D4E900029047D4E90B10884202DBB1
:103B90002046FFF737FF00BF00BF0B48007820B179
:103BA0000848FEF7D9FA044604E021460548FEF726
:103BB000EBFA044600BF002C88D1BDE8F08100007C
:103BC00071000020702200207000002070B50446B3
:103BD0000D46606818B129466068FFF7F7FF206856
:103BE00018B1294620462268904770BD70B5054639
:103BF0000C4626682068006858B120688069C0F3C8
:103C0000005030B120680068206021462846FFF748
:103C1000EDFF266021462846FFF7D8FF70BD70B53E
:103C200005460C46A1B228460BF0A7F970BD70B549
:103C300005460C46A1B228460BF0F0F970BD2DE9FF
:103C4000F04F8DB00746B7F904B0B7F906000C90F5
:103C500097F81BA03E68B7F908000B90D7F81490AE
:103C6000B7F918000A90D7F80C80B7F9100009903E
:103C700004A80DF046FF387F00287ED1B8F1000F70
:103C800025D1BAF1FD0F22DB00251CE0002411E054
:103C900006EB84000068029009EB8400006804AA27
:103CA000019002990DF064FB039006EB84000399E8
:103CB0000160641C5C45EBDB0B9806EB80060A9800
:103CC00009EB80096D1C0C988542DFDBD4E0B8F16C
:103CD000000F2DD1BAF1FD0F2ADA002524E00024CF
:103CE00019E009EB8400006808909DF8230000FBB0
:103CF0000AF000128DF8230006EB8400006804AA85
:103D00000146029008980DF033FB039006EB840007
:103D100003990160641C5C45E3DB0B9806EB8006AD
:103D20000A9809EB80096D1C0C988542D7DBA3E04B
:103D3000B8F1000F33D0BAF1FD0F30DB00252AE0D7
:103D400000241DE009EB8400006808909DF8230022
:103D500018F8041010FB01F000128DF8230006EB98
:103D60008400006804AA0146029008980DF000FB48
:103D7000039006EB8400039900E046E00160641CB8
:103D80005C45DFDB0B9806EB80060A9809EB80099F
:103D9000099880446D1C0C988542D1DB6CE0B8F129
:103DA000000F69D0BAF1FD0F66DA002529E0002482
:103DB0001CE009EB8400006808909DF8230000FBDC
:103DC0000AF018F80410484300148DF8230006EB9D
:103DD0008400006804AA0146029008980DF0C8FA11
:103DE000039006EB840003990160641C5C45E0DBF2
:103DF0000B9806EB80060A9809EB80090998804425
:103E00006D1C0C988542D2DB36E0002531E00024A1
:103E100021E009EB840000680890B8F1000F07D199
:103E20009DF8230000FB0AF000128DF823000AE041
:103E30009DF8230018F8041010FB01F000FB0AF0B5
:103E400000148DF823003A7F06EB840004AB089938
:103E500000F02EFB641C5C45DBDBB8F1000F01D0E9
:103E6000099880440B9806EB80060A9809EB8009B4
:103E70006D1C0C988542CADB0DB0BDE8F08F2DE9B2
:103E8000F04F87B08346BBF904000690BBF90600EB
:103E900005909BF81B000490DBF80070BBF908004C
:103EA0000390DBF81460BBF81800800000B20290A9
:103EB000DBF80CA0BBF9100001909BF81C00002857
:103EC0007AD1BAF1000F21D10498FD281EDB4FF002
:103ED000000817E0002400250AE0EB1CF25C37F82C
:103EE000141070190DF0E6F927F81400641C2D1D4C
:103EF00006988442F1DB039807EB400702980644DA
:103F000008F1010805988045E4DB97E1BAF1000F5C
:103F100026D10498FD2823DA4FF000081CE0002485
:103F200000250FE0EB1CF35CDDF810C003FB0CF385
:103F30001A1237F8141070190DF0BCF927F8140094
:103F4000641C2D1D06988442ECDB039807EB4007A8
:103F50000298064408F1010805988045DFDB6DE111
:103F6000BAF1000F29D00498FD2826DB4FF0000895
:103F70001EE0002400250FE0EB1CF35C1AF804C0DF
:103F800013FB0CF31A1237F8141070190DF092F994
:103F900027F81400641C2D1D06988442ECDB03985E
:103FA00007EB4007029806440198824408F1010893
:103FB00005988045DDDB41E12FE0BAF1000FA4D088
:103FC0000498FD28A1DA4FF0000822E00024002523
:103FD00013E0EB1CF35C1AF804C013FB0CF3DDF8E0
:103FE00010C003FB0CF31A1437F8141070190DF0FD
:103FF00061F927F81400641C2D1D06988442E8DB43
:10400000039807EB4007029806440198824408F1A0
:10401000010805988045D9DB10E1B94600200090E1
:10402000804606E100240025F3E09BF81C000128EF
:1040300004D0022844D003287DD186E039F814004A
:10404000C00A715D00EBE1001F2806DA39F81400A0
:10405000C00A715D00EBE10000E01F20009039F81C
:104060001400C0F34511681C305C01EBA0003F2830
:1040700008DA39F81400C0F34511681C305C01EB14
:10408000A00000E03F200099084480B2009019F899
:10409000140000F01F01A81C305C01EBE0001F2899
:1040A00008DA19F8140000F01F01A81C305C01EBBD
:1040B000E00000E01F200099084480B200906FE00B
:1040C00039F81400C00A715DA0EBE100002806DD9C
:1040D00039F81400C00A715DA0EBE10000E0002097
:1040E00080B2009039F81400C0F34511681C305CB0
:1040F000A1EBA000002808DD39F81400C0F3451139
:10410000681C305CA1EBA00000E00020009908448E
:1041100080B2009019F8140000F01F01A81C305C58
:10412000A1EBE00000280ADD19F8140000F01F01DF
:10413000A81C305C00E02EE0A1EBE00000E00020D5
:104140000099084480B200902AE039F81400C00AAF
:10415000715DC91010FB01F04011009039F8140096
:10416000C0F34511681C305C801011FB00F1009811
:1041700000EBA11080B2009019F8140000F01F01AC
:10418000A81C305CC01011FB00F1009800EB61101E
:1041900080B2009004E000BF00BF07B0BDE8F08F20
:1041A00000BFBAF1000F09D10498FD2806DB725D4B
:1041B00037F8141000980DF05BF828E0BAF1000F02
:1041C0000CD10498FD2809DA705D049B5843021253
:1041D00037F8141000980DF04BF818E00498FD28FB
:1041E00009DB1AF8042037F8141000980DF040F895
:1041F00027F814000BE01AF80400049B584302123D
:1042000037F8141000980DF033F827F81400641CE8
:104210002D1D06988442FFF608AF039807EB400770
:1042200002980644BAF1000F01D00198824408F1C7
:10423000010805988045FFF6F5AE00BF00BFACE76A
:104240002DE9F34F87B00746B7F904000690B7F998
:104250000600059097F81BB0D7F800A03889089998
:10426000484300B204907E69B7F918000390D7F86C
:104270000C80B7F910000290387F002878D1B8F18F
:10428000000F21D1BBF1FD0F1EDB002518E04FF020
:10429000000900240BE006EB8403DA780AEB09013D
:1042A00006EB84000DF03EF808988144641C0698E3
:1042B0008442F0DB04988244039806EB80066D1C70
:1042C00005988542E3DBBDE0B8F1000F24D1BBF1D6
:1042D000FD0F21DA00251BE04FF0000900240EE05D
:1042E00006EB8403DB7803FB0BF31A120AEB0901DC
:1042F00006EB84000DF016F808988144641C0698BB
:104300008442EDDB04988244039806EB80066D1C22
:1043100005988542E0DB95E0B8F1000F29D0BBF1AC
:10432000FD0F26DB00251FE04FF00009002410E000
:1043300006EB8403DB7818F804C013FB0CF31A12A5
:104340000AEB090106EB84000CF0ECFF08988144AD
:10435000641C06988442EBDB04988244039806EBC5
:104360008006029880446D1C05988542DCDB69E07C
:104370002DE0B8F1000F65D0BBF1FD0F62DA00252A
:1043800021E04FF00009002412E006EB8403DB7803
:1043900018F804C013FB0CF303FB0BF31A140AEB1D
:1043A000090106EB84000CF0BDFF08988144641CF1
:1043B00006988442E9DB04988244039806EB800661
:1043C000029880446D1C05988542DADB3AE00025AE
:1043D00034E04FF00009002422E006EB840000687E
:1043E0000190B8F1000F07D19DF8070000FB0BF01A
:1043F00000128DF807000AE09DF8070018F8091070
:1044000010FB01F000FB0BF000148DF807003A7F61
:104410000AEB0900019900F0DFF808988144641C58
:1044200006988442D9DBB8F1000F01D0029880448D
:1044300004988244039806EB80066D1C059885421B
:10444000C7DB00BF09B0BDE8F08F000030B595B004
:1044500004462546A88F18B9204622F03FFB1EE0EF
:1044600068460AF067F8294668460AF01AF90D49C5
:1044700068460AF0E9F8A98F68460AF0F8F80122C0
:10448000002168460AF005F9074968460AF0E0F895
:104490000648039000BF68460AF016F900BF15B041
:1044A00030BD0000656B020821E60008676B02085A
:1044B0007FB584B0044615461E4600200390012DAA
:1044C00004D0022D30D0032D76D15BE0A0789DF88A
:1044D00016100844FF2804DAA0789DF81610084446
:1044E00000E0FF20C0B28DF80E0060789DF8151036
:1044F0000844FF2804DA60789DF81510084400E0AD
:10450000FF20C0B28DF80D0020789DF814100844EB
:10451000FF2804DA20789DF81410084400E0FF20FA
:10452000C0B28DF80C004BE0A0789DF81610401A30
:10453000002804DDA0789DF81610401A00E0002045
:10454000C0B28DF80E0060789DF81510401A002852
:1045500004DD60789DF81510401A00E00020C0B21C
:104560008DF80D0020789DF81410401A002804DD05
:1045700020789DF81410401A00E00020C0B28DF899
:104580000C001DE0A0789DF8161010FB01F0001241
:104590008DF80E0060789DF8151010FB01F00012E8
:1045A0008DF80D0020789DF8141010FB01F000121A
:1045B0008DF80C0004E0FFE700BF00BF08B070BD3D
:1045C00000BF206832460146019003980CF0D0FEEF
:1045D0000290206000BFF1E737B582B0044615466F
:1045E00000200190012D04D0022D30D0032D76D172
:1045F0005BE020789DF80E100844FF2804DA20784C
:104600009DF80E10084400E0FF20C0B28DF80400B1
:1046100060789DF80D100844FF2804DA60789DF852
:104620000D10084400E0FF20C0B28DF80500A0780E
:104630009DF80C100844FF2804DAA0789DF80C10AF
:10464000084400E0FF20C0B28DF806004BE020785F
:104650009DF80E10401A002804DD20789DF80E10F9
:10466000401A00E00020C0B28DF8040060789DF888
:104670000D10401A002804DD60789DF80D10401AD6
:1046800000E00020C0B28DF80500A0789DF80C1065
:10469000401A002804DDA0789DF80C10401A00E0B4
:1046A0000020C0B28DF806001DE020789DF80E10A5
:1046B00010FB01F000128DF8040060789DF80D10D9
:1046C00010FB01F000128DF80500A0789DF80C1089
:1046D00010FB01F000128DF8060004E0FFE700BFB8
:1046E00000BF05B030BD00BF9DF80F20214601A8D6
:1046F0000CF018FE00BFF4E770B504460D4600BF8D
:10470000204600F03BF818B100BF00BF00BFFEE735
:1047100000BF284600F050F9001D61680844606041
:10472000204600F03AF8204670BD70B505460C46AC
:10473000284600F041F904F11001884201D301201C
:1047400070BD0020FCE70146A1F1080070477CB570
:1047500005460C46204600F02FF906466A4601A998
:1047600021F0FBFC21462846DDE9003208F087FDF8
:104770007CBD0146087900F00100704710B5044681
:10478000204600F019F908B9012010BD0020FCE70F
:104790000146087900F00200704770B504462046D3
:1047A00000F097F805462C60284670BD7CB506469B
:1047B0000C4600200190009000256CB16A4601A9CA
:1047C000204621F0E7FC0198092805DA6A4601A98C
:1047D000304624F0F0FC054685B100BF284600F0C5
:1047E000EBF8A04203D200BF00BF00BFFEE700BF4E
:1047F00029463046DDE9003223F078F828467CBDB2
:1048000070B504462046FFF7C8FF0546284600F06D
:10481000BEF8204600F0B6F870BD70B504462046DC
:1048200000F057F80546284600F0B6F8204600F09C
:10483000BEF870BD70B506460D46284600F049F832
:10484000044600BF1CB900BF00BF00BFFEE700BFA9
:104850002046FFF78EFF90B100BF2846FFF78EFF7E
:1048600018B100BF00BF00BFFEE700BF21463046C1
:1048700000F076F821462846FFF73EFF0546284619
:1048800070BD70B506460D462846FFF781FFF0B1B2
:10489000284600F057F8044600BF1CB900BF00BF0F
:1048A00000BFFEE700BF00BF2046FFF762FF18B958
:1048B00000BF00BF00BFFEE700BF2146304600F04A
:1048C0004FF829462046FFF717FF054600BF284648
:1048D00070BD2DE9F0410446204600F06DF8061F3A
:1048E000204600F0B8F80746314621F0FBFE0546A9
:1048F00000BF2046FFF742FF18B100BF00BF00BF56
:10490000FEE700BF2846BDE8F0812DE9F0410646EC
:104910000C461546002794B100BF1DB900BF00BF6B
:1049200000BFFEE700BF2A462146304600F097F858
:104930002046FFF772FF204600F08DF80746384604
:10494000BDE8F08110B5044600BF2046FFF720FF08
:1049500018B900BF00BF00BFFEE700BF206810BD50
:104960007CB505460C46204600F026F806466A4609
:1049700001A921F0F2FB21462846DDE9003222F0B0
:10498000B5FF7CBD416841F001014160704741685D
:1049900041F0020141607047416821F0020141602D
:1049A0007047426802F003030B434360704741685D
:1049B00021F00101416070470146486820F0030082
:1049C00070472DE9F04706460C46304600F043F8A4
:1049D0008046211F21F086FE07463046FFF7ECFF98
:1049E000211D451A00BF384600F035F8814638468B
:1049F00000F031F880460421FEF717FF814503D00F
:104A000000BF00BF00BFFEE700BF00BF3046FFF79A
:104A1000D3FF2919091D884203D000BF00BF00BF82
:104A2000FEE700BF29463846FFF7BBFF00BF384608
:104A3000FFF7C2FF0C2803D200BF00BF00BFFEE794
:104A400000BF21463046FFF7ACFF3846FFF7D8FEDF
:104A50003846BDE8F087014601F1080070472DE9AE
:104A6000F04106460C46154600BF2046FFF781FE82
:104A700018B900BF00BF00BFFEE700BF29462046AF
:104A8000FFF753FE78B129462046FFF79AFF074605
:104A90002046FFF782FE3846FFF779FF3946304659
:104AA000FFF755FE00BFBDE8F0812DE9F041064655
:104AB0000C46154600BF2046FFF75BFE18B100BF4D
:104AC00000BF00BFFEE700BF29462046FFF72DFECE
:104AD00088B129462046FFF774FF07463846FFF79E
:104AE0005BFF39463046FFF7A5FE0746394630469C
:104AF000FFF72DFE00BFBDE8F0812DE9F843064623
:104B0000344615F033F88046404615F076F878BB09
:104B1000304613F0BAF838B3304612F033FF208F26
:104B2000E18E884212D0E08E2087E08E00906A46A7
:104B30001C2130461CF0DAFC0746012F02D0384613
:104B4000BDE8F88330461BF023FA00BF404615F05D
:104B500062F80546042D06D1304618F07BFE074664
:104B6000002114F013FB09E0304613F0F1F805E0E2
:104B7000FFE7208FE08630461BF00AFA0120DFE7CE
:104B80002DE9F0410446204613F0A1FB05462846D6
:104B900018F0CDFE064628460BF0D8FA074600224C
:104BA000394630461FF0B6FDBDE8F0810146C1F33D
:104BB000002070470146C1F3C01070470146C1F3A1
:104BC000002070470146C1F3402070470146C1F301
:104BD000001070470146C1F3801070470146C1F3D1
:104BE000802070470146C1F3C02070470146C1F3E1
:104BF000401070472DE9F04F89B004460D46002162
:104C0000204618F05FFD30B91C21284617F0F9F84E
:104C100009B0BDE8F08F2946204600F0FDFA29468C
:104C2000204600F07DF80021204619F0C1FF0890D1
:104C3000002120461AF0DCF807900021204619F0E8
:104C4000F2FC012800D100E000208146002120462E
:104C50001AF02EFC07460021204619F01DFE0646DC
:104C600042F2D170874205D1608CC0F3802008B930
:104C7000012000E000208246204618F09CFD0690AE
:104C800000BF4FF0000824480288414620461AF031
:104C90004BF903900398C0B200BF8346AA68296904
:104CA0002868CDE90209CDE900125A465146089B11
:104CB000069808F0C1F8288342F2D170864205D1E7
:104CC000608CC0F3402008B9012000E0002005906E
:104CD000204618F05BFD049000BF4FF000080F481D
:104CE0000288414620461AF01FF903900398C0B28B
:104CF00000BF83460023EA6869686869CDE902134A
:104D0000CDE900025A46079BDDE9040108F094F85A
:104D1000688300BF7CE700005E0000206200002086
:104D20002DE9F34F87B00C46079807F009F9804644
:104D3000079818F040FD0690404601F0A9F920615F
:104D40002169480016F094FD20602169480016F0A2
:104D50008FFDA060002548E05848029038F9150002
:104D600041F69A7188423FD10020019029E00199D3
:104D7000079818F0A7FC0090514900981AF03AFDE6
:104D800000B11BE0009807F0F9F88246BAF1010F74
:104D900000D013E0009807F0E1F88346AB4500D05F
:104DA0000CE000981AF0B8FC0299884201DA0298E7
:104DB00002E000981AF0B0FC029000BF0198401C7D
:104DC0000190079818F09CFC01998842CFD802986E
:104DD000002804DB0298A16821F8150003E00021F7
:104DE000A06820F8151000BF6D1C2069A842B3D838
:104DF0000026B14600251BE038F9150041F69B71ED
:104E0000884202DB411A0E4411E041F69A71884251
:104E100006D1A16831F8151049440FFA81F906E06E
:104E2000A16821F8150009EB00010FFA81F96D1C4A
:104E30002069A842E0D80021079819F0B9FE059032
:104E40002169491EDDE9050200FB112000B2069030
:104E50000698A0EB090007B2002F00DA00274FF0F8
:104E6000FF30049000200390002513E038F915006E
:104E700041F69B7188420CDB421A11B207FB01F22A
:104E8000B2FBF6F212B2A36823F815200495039141
:104E900000BF6D1C2069A842E8D8049800280ADBEE
:104EA0000398301A7843B0FBF6F0381A01B2A268C2
:104EB000049822F8101009B0BDE8F08F01E0FFFF60
:104EC000010006002DE9FE4F0446204618F0E8FEDA
:104ED0000290A06810B10021A068C1820021204684
:104EE0001AF08BF98146002120461AF0CFF80646C9
:104EF000204619F015FB484430440FFA80FA3A4D29
:104F0000204618F0FDFB0190002757E0DFF8D8B0ED
:104F1000A068006850F82780344940461AF06AFCBF
:104F200000B14AE040461BF0ABF870BB00214046A0
:104F300019F027FB0090009830B1012807D0022813
:104F400004D003280BD100E000BF00BF00BFB8F8B9
:104F50001A10E08A081A401C0FFA80FB13E00021A7
:104F600040461AF0D5FA68B908F114000AF029F998
:104F700048440FFA80FB0021404619F029FD5844AF
:104F80000FFA80FB00BF00BF07E0FFE7B8F81A1078
:104F9000E08A081A401C0FFA80FB0021404619F0F5
:104FA000ABFC5844A84201DA284604E00021404600
:104FB00019F0A2FC584405B200BF7F1C019887423B
:104FC000A4D3A06810B10298A168C882064885429F
:104FD00002D15046BDE8FE8FA819504501DA50466F
:104FE00000E0A81900B2F5E701E0FFFF01000400AE
:104FF0002DE9FE4F0446204618F048FE0290A068B6
:1050000010B10020A1688882002120461AF0B8F86B
:105010000746002120461AF076F88046204619F00F
:105020008FFA404438440FFA80FA714D204618F048
:1050300067FB01900021204619F0D1FA012863D1C5
:10504000002657E0DFF8A8B1A068006850F8269065
:10505000684948461AF0CEFB00B14AE048461BF0CA
:105060000FF870BB0021484619F08BFA00900098A9
:1050700030B1032805D0062804D008280BD102E05F
:1050800000BF00BF00BF208BB9F81410401A401CAD
:105090000FFA80FB13E0002148461AF02DFA68B998
:1050A00009F114000AF000F938440FFA80FB0021DE
:1050B000484619F045FC58440FFA80FB00BF00BF7A
:1050C00007E0FFE7208BB9F81410401A401C0FFAD4
:1050D00080FB0021484619F033FC5844A84201DA0D
:1050E000284604E00021484619F02AFC584405B23D
:1050F00000BF761C01988642A4D33D48854265D006
:1051000005EB080005B261E0002657E0DFF8E0B0EB
:10511000A068006850F82690364948461AF06AFBA5
:1051200000B14AE048461AF0ABFF70BB0021484688
:1051300019F027FA0090009830B1012805D0042812
:1051400004D007280BD102E000BF00BF00BFB9F8B0
:105150001800A18A401A401C0FFA80FB13E00021BE
:1051600048461AF0D5F968B909F114000AF09CF81C
:1051700040440FFA80FB0021484619F005FC5844D2
:105180000FFA80FB00BF00BF07E0FFE7B9F8180087
:10519000A18A401A401C0FFA80FB0021484619F0F2
:1051A000F3FB5844A84201DA284604E000214846AF
:1051B00019F0EAFB584405B200BF761C01988642FC
:1051C000A4D30B48854201D0E81905B2A06810B1FC
:1051D0000298A16888820648854202D15046BDE8FF
:1051E000FE8F554501DD2846F9E75046F7E70000F8
:1051F00001E0FFFF0100040010B50446206813F031
:1052000057FB606813F054FBA06813F051FBE06893
:1052100013F04EFB10BD00002DE9F34F87B00C4694
:10522000079807F00BFC8046404600F031FF6061B4
:105230006169480016F01CFB60606169480016F067
:1052400017FBE060002547E05948029038F9150047
:1052500041F69A7188423ED14FF0000A29E051464A
:10526000079818F02FFA0190524901981AF0C2FAE3
:1052700000B11CE0019807F0A1FC8346BBF1010FCF
:1052800000D014E0019807F089FC00900098A84233
:1052900000D00CE0019818F0E7FA0299884201DA90
:1052A000029802E0019818F0DFFA029000BF0AF1BC
:1052B000010A079818F024FA5045D0D8029800281F
:1052C00004DB0298E16821F8150003E00020E168A2
:1052D00021F8150000BF6D1C6069A842B4D80026F3
:1052E000B14600251BE038F9150041F69B71884254
:1052F00002DB411A0E4411E041F69A71884206D150
:10530000E16831F8151049440FFA81F906E0E168C7
:1053100021F8150009EB00010FFA81F96D1C606995
:10532000A842E0D80021079819F062FD069007987E
:1053300018F02CFA01466269521E069800FB121002
:1053400000B205900598A0EB090007B2002F00DA23
:1053500000274FF0FF30049000200390002513E059
:1053600038F9150041F69B7188420CDB421A11B2E4
:1053700007FB01F2B2FBF6F212B2E36823F8152044
:105380000495039100BF6D1C6069A842E8D8049899
:1053900000280ADB0398301A7843B0FBF6F0381A7D
:1053A00001B2E268049822F8101009B0BDE8F08F4D
:1053B00001E0FFFF0100060038B5044600256D221C
:1053C0002946204619F0B0FD0090009800B208B1BF
:1053D000022038BD00256C222946204619F0A4FD84
:1053E0000090009800B2B0F5807F01D00220F0E775
:1053F0000021204619F034FBFF2801D00120E8E706
:10540000002567222946204619F08EFD009000985D
:10541000C0B208B10120DCE70020DAE72DE9F84F3F
:1054200004460D4616461F46DDE90A9A022D17D19D
:1054300053464A463946304620F01FFC80460C98B9
:1054400009F0BEFF009000EBD0704010C34608EB9F
:10545000DB71A0EB61002188084400B2208012E0DB
:10546000032D10D153464A463946304620F005FCFC
:1054700080460C9809F0A4FFA0EB0800218808449E
:1054800000B2208000BFBDE8F88F7CB504460D4611
:10549000164628882189084400B2ADF800006888C3
:1054A0006189084400B2ADF80200A8882189084447
:1054B00000B2ADF80400E8886189084400B2ADF894
:1054C0000600D4F85801C06918B1D4F85801C16970
:1054D00088476A46342120460CF0EEFD3246694684
:1054E0002046236A98476A46352120460CF0E4FDA1
:1054F0007CBD0000F8B505460E462C46A06B58B1A1
:1055000028461FF0F9FC0746114909688847A16B36
:10551000884201D30020F8BD606B10B1606B007849
:1055200008B90120F7E7002000900AE06946094A1F
:10553000606B126890470746B74201D10120EAE745
:1055400000BF606B0099405C0028EFD100BFE2E72C
:10555000E4000020D40000202DE9FF4F93B00F4657
:10556000249DF87800F0010008B1FE4800E0FE48F4
:105570001290F87800F0010008B1FC4800E0FC4807
:105580001190F87800F0010008B9F84800E0F848F8
:105590001090F87800F0010008B1F64800E0F648F5
:1055A0000F90F87800F0010008B1F44800E0F448EA
:1055B0000E90F87800F0010008B9EE4800E0EE48DF
:1055C0000D90F87800F0010008B9EC4800E0EC48D4
:1055D0000C9001200B90BEE000210B910020698807
:1055E000B5F804C0A1EB0C010AB200261AE006EBE4
:1055F000860CE96801EB8C01097C01F0010141B9DD
:1056000006EB860CE96801EB8C018989014408B23C
:1056100007E006EB860CE96801EB8C010989511A59
:105620000AB2761C2969B142E1D800268EE006EB69
:10563000860CE96801EB8C01097C01F0010100296D
:105640007DD100BF18B900BF00BF00BFFEE700BF9B
:1056500092FBF0F80FFA88F306EB8609D5F80C8078
:1056600008EB8908B8F80C8008FB03F80FFA88F1FA
:1056700006EB8609D5F80C8008EB8908B8F9049088
:1056800006EB860AD5F80C8008EB8A08B8F9068084
:10569000884501DD884607E006EB860AD5F80C80D0
:1056A00008EB8A08B8F90680C14508DD06EB8609D3
:1056B000D5F80C8008EB8908B8F9048013E006EBF4
:1056C0008609D5F80C8008EB8908B8F9068088456A
:1056D00001DD884607E006EB8609D5F80C8008EB6B
:1056E0008908B8F90680C4468C450BD04FF00108F4
:1056F00006EB860AD5F80C9009EB8A09C9F81080E8
:10570000CDF82C8006EB8609D5F80C8008EB8908CB
:10571000A8F808C006EB8609D5F80C8008EB8908C4
:10572000B8F80C80A0EB08080FFA88F006EB8609A1
:10573000D5F80C8008EB8908B8F8088000E004E090
:10574000A2EB08080FFA88F200BF761C2969B14263
:105750003FF66DAF00BF0B9818B1286900287FF4A1
:105760003BAF0021139818F052FF012800D100E050
:1057700000200A9000200990089008A809A9CDE906
:10578000001029890BB2B5F902203878229921F04E
:10579000AFF8F87800F0010048B10A9838B11398D2
:1057A00018F009F8BDF82410084400B209901599C2
:1057B000139817F087FF0446D0E1724920461AF08B
:1057C00019F840B1F878C0F3800115AA139806F0D3
:1057D0006AFF0446C2E10021204619F035F807901F
:1057E000079800285ED04FF0000B00260FE006EB74
:1057F0008601E86850F82100A04207D106EB860137
:10580000E86800EB8100B0F908B003E0761C286975
:10581000B042ECD800BFF87800F0010050B1608CC5
:1058200020F4806000F580606084608C20F400705B
:10583000608409E0608C20F4007000F500706084E2
:10584000608C20F48060608404F114001199884712
:10585000584526D020461AF09BFB00BFA08AADF821
:105860000400E08AADF80600208BADF80800608BDC
:10587000ADF80A0000BF594604F11400129A90478F
:1058800001AA292120461BF031FE204618F04FF8CE
:105890002246222100901BF029FE20461AF078FBB8
:1058A00000BF07E0608C20F480606084608C20F48E
:1058B00000706084002006907878012825D00228A6
:1058C00034D104F1140010998847B5F90010491C2F
:1058D00021F00101A1EB000B0BEBDB70401000B2DB
:1058E0000690002120460D9A9047834600212046CD
:1058F0000C9A9047ABEB0000029000EBD070411087
:105900000698084400B2069019E004F114001099BA
:1059100088472988081A00B20690002120460C9A70
:1059200090470699081A00B2069008E00021204628
:105930000D9A90470699084400B2069000BF00BF38
:10594000F87800F0010050B10A9840B104F1140059
:1059500011998847BDF82410081A00B209904FF039
:10596000000B11E02DF4000821F400087BF300087F
:1059700033F2000859E90108E9E90108A1E9010841
:1059800011E90108010006006A225946204619F073
:10599000CBFA029002980FFA80F800BF00BF6B228A
:1059A0005946204619F0C0FA029002980FFA80F981
:1059B00000BF204619F0B0FE0590204617F054FFB6
:1059C000049008F4C040B0F5005F01D1012000E070
:1059D000002030B128F4C040B0F5FA6F01DC01209E
:1059E00000E0002090B128F4C040B0F57A7F04DDDB
:1059F00028F4C040C0F57A7001E028F4C040059951
:105A00004843642190FBF1F00FFA80F809F4C0409C
:105A1000B0F5005F01D1012000E0002030B129F491
:105A2000C040B0F5FA6F01DC012000E0002090B129
:105A300029F4C040B0F57A7F04DD29F4C040C0F5F8
:105A40007A7001E029F4C04004994843642190FB36
:105A5000F1F00FFA80F9A18A2098401A40440FFA19
:105A600080FAE18A2198401A484400B20390F878FD
:105A700000F0010038B1002120460F9A9047BDF98F
:105A80002410084400E0069850440FFA80FAF87891
:105A900000F0010008B1069806E0002120460F9AA8
:105AA0009047BDF9241008440399084400B20390BC
:105AB000BAF1000F01D10398E8B120461AF068FA54
:105AC000A08A504400B2A082208B504401B22183AE
:105AD000E18A0398084401B2E182618B039808448B
